:020000040800F2
:100000000000022021050008150300081B0300085A
:1000100021030008270300082D030008000000004A
:10002000000000000000000000000000812800081F
:100030003303000800000000612A00087102000874
:10004000390300083F030008450300084B0300087C
:1000500051030008570300085D030008630300080C
:10006000690300086F030008750300087B0300089C
:1000700081030008870300088D030008930300082C
:10008000990300089F030008A5030008AB030008BC
:10009000B1030008B7030008BD030008C30300084C
:1000A000C9030008CF030008D5030008DB030008DC
:1000B000E1030008E7030008ED030008F30300086C
:1000C000F9030008FF030008050400080B040008FA
:1000D00011040008170400081D0400082304000888
:1000E000290400082F040008350400083B04000818
:1000F00041040008470400084D04000853040008A8
:10010000590400085F040008650400086B04000837
:1001100071040008770400087D04000883040008C7
:10012000890400088F040008950400089B04000857
:10013000A1040008A7040008AD040008B3040008E7
:10014000B9040008BF040008C5040008CB04000877
:10015000D1040008D7040008DD040008E304000807
:10016000E9040008EF040008F5040008FB04000897
:1001700001050008070500080D0500080000000043
:08018000130500081905000831
:1001900010B5054C237833B9044B13B10448AFF3C1
:1001A00000800123237010BD10000020000000001B
:1001B0008C36000808B5034B1BB103490348AFF365
:1001C000008008BD00000000140000208C360008EC
:1001D000B0B590B000AF02F0C7FE00233B601E4BED
:1001E0001B6B1D4A43F0040313631B4B1B6B03F093
:1001F00004033B603B680623FB6201233B6302234D
:10020000BB6300237B6307F12C031946134802F0FC
:10021000FFFF134B07F118041D460FCD0FC42B68C9
:100220002360104B3C1D1D460FCD0FC42B6823606F
:1002300007F118030021184602F051FA03460A4A52
:1002400013603B1D0021184602F049FA0346074A95
:10025000136002F03DFAFEE7003802400008024059
:100260003436000848360008C83D0020CC3D002048
:1002700080B500AF02F0D2FE02F06CFA00BF80BD84
:1002800080B582B000AF7860012202210D4803F0F2
:100290005BF94FF4FA6002F049FA002202210948A2
:1002A00003F052F9084B1B68184602F05EFA4FF44F
:1002B000FA6002F03BFA044B1B68184602F062FA3F
:1002C000E2E700BF00080240CC3D002080B582B0CC
:1002D00000AF78600421034803F04FF9C82002F012
:1002E00025FAF7E70008024080B400AF084BD3F8C6
:1002F0008830074A43F47003C2F88830044B4FF04B
:1003000000629A6000BFBD465DF8047B704700BF85
:1003100000ED00E0FFBE704700BFFFBE704700BFAA
:10032000FFBE704700BFFFBE704700BFFFBE7047F3
:1003300000BFFFBE704700BFFFBE704700BFFFBEDB
:10034000704700BFFFBE704700BFFFBE704700BFD1
:10035000FFBE704700BFFFBE704700BFFFBE7047C3
:1003600000BFFFBE704700BFFFBE704700BFFFBEAB
:10037000704700BFFFBE704700BFFFBE704700BFA1
:10038000FFBE704700BFFFBE704700BFFFBE704793
:1003900000BFFFBE704700BFFFBE704700BFFFBE7B
:1003A000704700BFFFBE704700BFFFBE704700BF71
:1003B000FFBE704700BFFFBE704700BFFFBE704763
:1003C00000BFFFBE704700BFFFBE704700BFFFBE4B
:1003D000704700BFFFBE704700BFFFBE704700BF41
:1003E000FFBE704700BFFFBE704700BFFFBE704733
:1003F00000BFFFBE704700BFFFBE704700BFFFBE1B
:10040000704700BFFFBE704700BFFFBE704700BF10
:10041000FFBE704700BFFFBE704700BFFFBE704702
:1004200000BFFFBE704700BFFFBE704700BFFFBEEA
:10043000704700BFFFBE704700BFFFBE704700BFE0
:10044000FFBE704700BFFFBE704700BFFFBE7047D2
:1004500000BFFFBE704700BFFFBE704700BFFFBEBA
:10046000704700BFFFBE704700BFFFBE704700BFB0
:10047000FFBE704700BFFFBE704700BFFFBE7047A2
:1004800000BFFFBE704700BFFFBE704700BFFFBE8A
:10049000704700BFFFBE704700BFFFBE704700BF80
:1004A000FFBE704700BFFFBE704700BFFFBE704772
:1004B00000BFFFBE704700BFFFBE704700BFFFBE5A
:1004C000704700BFFFBE704700BFFFBE704700BF50
:1004D000FFBE704700BFFFBE704700BFFFBE704742
:1004E00000BFFFBE704700BFFFBE704700BFFFBE2A
:1004F000704700BFFFBE704700BFFFBE704700BF20
:10050000FFBE704700BFFFBE704700BFFFBE704711
:1005100000BFFFBE704700BFFFBE704700BF0000B6
:100520000C4D0D4C03E02B682360043504340B4B59
:100530009C42F8D10A4C02E0002323600434094BAA
:100540009C42F9D1FFF7D0FE03F032F8FFF740FEEE
:10055000FEE700BF943600080000002010000020D5
:1005600010000020143E002080B483B000AF7860FB
:100570007B6803F108027B685A607B684FF0FF32AA
:100580009A607B6803F108027B68DA607B6803F19C
:1005900008027B681A617B6800221A6000BF0C3772
:1005A000BD465DF8047B704780B483B000AF7860CF
:1005B0007B6800221A6100BF0C37BD465DF8047BE2
:1005C000704780B485B000AF786039607B685B6845
:1005D000FB603B68FA685A60FB689A683B689A60FF
:1005E000FB689B683A685A60FB683A689A603B68A7
:1005F0007A681A617B681B685A1C7B681A6000BFA6
:100600001437BD465DF8047B704780B485B000AFF9
:10061000786039603B681B68BB60BB68B3F1FF3F23
:1006200003D17B681B69FB600CE07B680833FB60CF
:1006300002E0FB685B68FB60FB685B681B68BA688C
:100640009A42F6D2FB685A683B685A603B685B681E
:100650003A689A603B68FA689A60FB683A685A6040
:100660003B687A681A617B681B685A1C7B681A6051
:1006700000BF1437BD465DF8047B704780B485B079
:1006800000AF78607B681B69FB607B685B687A6899
:1006900092689A607B689B687A6852685A60FB68C7
:1006A0005B687A689A4203D17B689A68FB685A60F3
:1006B0007B6800221A61FB681B685A1EFB681A607F
:1006C000FB681B6818461437BD465DF8047B70470D
:1006D00080B584B000AF786039607B68FB60FB68F0
:1006E000002B0AD14FF0500383F31188BFF36F8FB3
:1006F000BFF34F8FBB6000BFFEE702F057F9FB6806
:100700001A68FB68DB6BF968096C01FB03F31A4498
:10071000FB689A60FB6800229A63FB681A68FB68B2
:100720005A60FB681A68FB68DB6B013BF968096C6F
:1007300001FB03F31A44FB68DA60FB68FF2283F8CD
:100740004420FB68FF2283F845203B68002B14D12E
:10075000FB681B69002B1AD0FB681033184601F0A8
:10076000D5F90346002B12D00C4B4FF080521A6083
:10077000BFF34F8FBFF36F8F09E0FB68103318464C
:10078000FFF7F2FEFB6824331846FFF7EDFE02F098
:100790003DF9012318461037BD4680BD04ED00E049
:1007A00080B58AB002AFF860B9601346FB71FB6890
:1007B000002B0AD14FF0500383F31188BFF36F8FE2
:1007C000BFF34F8F3B6100BFFEE7BB68002B02D138
:1007D0000023FB6104E0FB68BA6802FB03F3FB61E2
:1007E000FB695033184602F0E5F9B861BB69002B8C
:1007F0000DD0BB697B617B6950337B61FA79BB6942
:10080000009313467A69B968F86800F005F8BB6987
:1008100018462037BD4680BD80B584B000AFF86073
:10082000B9607A60FB70BB68002B03D1BB69BA6901
:100830001A6002E0BB697A681A60BB69FA68DA6319
:10084000BB69BA681A640121B869FFF741FFBB6947
:10085000FA7883F84C2000BF1037BD4680BD0000F9
:1008600080B58EB000AFF860B9607A603B6000235D
:100870007B63FB683B633B6B002B0AD14FF050035B
:1008800083F31188BFF36F8FBFF34F8FBB6200BF3D
:10089000FEE7BB68002B03D13B6B1B6C002B01D127
:1008A000012300E00023002B0AD14FF0500383F313
:1008B0001188BFF36F8FBFF34F8F7B6200BFFEE7DE
:1008C0003B68022B03D13B6BDB6B012B01D1012376
:1008D00000E00023002B0AD14FF0500383F311886E
:1008E000BFF36F8FBFF34F8F3B6200BFFEE701F096
:1008F000A9FA0346002B02D17B68002B01D101230A
:1009000000E00023002B0AD14FF0500383F311883D
:10091000BFF36F8FBFF34F8FFB6100BFFEE702F0A5
:1009200045F83B6B9A6B3B6BDB6B9A4202D33B689F
:10093000022B29D13A68B968386B00F007FAF862DF
:100940003B6B5B6A002B10D03B6B2433184601F0E5
:10095000DDF80346002B13D03F4B4FF080521A6056
:10096000BFF34F8FBFF36F8F0AE0FB6A002B07D0F6
:10097000394B4FF080521A60BFF34F8FBFF36F8F28
:1009800002F044F8012363E07B68002B03D102F0FE
:100990003DF800235CE07B6B002B06D107F11403CC
:1009A000184601F015F901237B6302F02FF800F0DF
:1009B0008FFE01F0FBFF3B6B93F844305BB2B3F169
:1009C000FF3F03D13B6B002283F844203B6B93F83D
:1009D00045305BB2B3F1FF3F03D13B6B002283F89C
:1009E000452002F013F83A1D07F11403114618468A
:1009F00001F004F90346002B24D1386B00F09EFA75
:100A00000346002B18D03B6B10337A68114618460A
:100A100001F02CF8386B00F029FA00F067FE03466D
:100A2000002B7FF47CAF0C4B4FF080521A60BFF369
:100A30004F8FBFF36F8F72E7386B00F017FA00F03B
:100A400055FE6CE7386B00F011FA00F04FFE002302
:100A500018463837BD4680BD04ED00E080B58EB045
:100A600000AFF860B9607A603B60FB683B633B6B4A
:100A7000002B0AD14FF0500383F31188BFF36F8F1F
:100A8000BFF34F8F7B6200BFFEE7BB68002B03D133
:100A90003B6B1B6C002B01D1012300E00023002BDA
:100AA0000AD14FF0500383F31188BFF36F8FBFF368
:100AB0004F8F3B6200BFFEE73B68022B03D13B6BCD
:100AC000DB6B012B01D1012300E00023002B0AD1B5
:100AD0004FF0500383F31188BFF36F8FBFF34F8F35
:100AE000FB6100BFFEE702F025F8EFF311824FF043
:100AF000500383F31188BFF36F8FBFF34F8FBA6139
:100B00007B61BB69FB623B6B9A6B3B6BDB6B9A4215
:100B100002D33B68022B2CD13B6B93F8453087F80E
:100B20002B303A68B968386B00F010F997F92B3020
:100B3000B3F1FF3F12D13B6B5B6A002B16D03B6BCE
:100B40002433184600F0E2FF0346002B0ED07B68EA
:100B5000002B0BD07B6801221A6007E097F82B303E
:100B60000133DBB25AB23B6B83F8452001237B6330
:100B700001E000237B63FB6A3B613B6983F31188DF
:100B800000BF7B6B18463837BD4680BD80B58CB042
:100B900000AFF860B9607A600023FB62FB68BB625B
:100BA000BB6A002B0AD14FF0500383F31188BFF3C7
:100BB0006F8FBFF34F8F3B6200BFFEE7BB68002B18
:100BC00003D1BB6A1B6C002B01D1012300E0002381
:100BD000002B0AD14FF0500383F31188BFF36F8FBE
:100BE000BFF34F8FFB6100BFFEE701F02BF9034617
:100BF000002B02D17B68002B01D1012300E00023F0
:100C0000002B0AD14FF0500383F31188BFF36F8F8D
:100C1000BFF34F8FBB6100BFFEE701F0C7FEBB6AA9
:100C20009B6B7B627B6A002B1FD0B968B86A00F0AF
:100C3000F7F87B6A5A1EBB6A9A63BB6A1B69002B72
:100C40000FD0BB6A1033184600F060FF0346002B3C
:100C500007D03D4B4FF080521A60BFF34F8FBFF368
:100C60006F8F01F0D3FE012369E07B68002B03D175
:100C700001F0CCFE002362E0FB6A002B06D107F1F5
:100C80001003184600F0A4FF0123FB6201F0BEFE32
:100C900000F01EFD01F08AFEBB6A93F844305BB29F
:100CA000B3F1FF3F03D1BB6A002283F84420BB6A43
:100CB00093F845305BB2B3F1FF3F03D1BB6A00222A
:100CC00083F8452001F0A2FE3A1D07F110031146FA
:100CD000184600F093FF0346002B23D1B86A00F0BA
:100CE00017F90346002B17D0BB6A24337A681146E4
:100CF000184600F0BBFEB86A00F0B8F800F0F6FC49
:100D00000346002B89D1104B4FF080521A60BFF37D
:100D10004F8FBFF36F8F80E7B86A00F0A7F800F03D
:100D2000E5FC7AE7B86A00F0A1F800F0DFFCB86AE9
:100D300000F0EEF80346002B3FF46FAF0023184697
:100D40003037BD4680BD00BF04ED00E080B586B001
:100D500000AFF860B9607A6000237B61FB689B6B31
:100D60003B61FB681B6C002B0DD1FB681B68002BE3
:100D70004DD1FB689B68184601F082F87861FB68EA
:100D800000229A6043E07B68002B19D1FB68586809
:100D9000FB681B6C1A46B96802F02EFCFB685A68A7
:100DA000FB681B6C1A44FB685A60FB685A68FB6856
:100DB0009B689A422BD3FB681A68FB685A6026E04E
:100DC000FB68D868FB681B6C1A46B96802F014FC13
:100DD000FB68DA68FB681B6C5B421A44FB68DA60EC
:100DE000FB68DA68FB681B689A4207D2FB689A685E
:100DF000FB681B6C5B421A44FB68DA607B68022B61
:100E000005D13B69002B02D03B69013B3B613B694B
:100E10005A1CFB689A637B6918461837BD4680BD2B
:100E200080B582B000AF786039607B681B6C002BA6
:100E300018D07B68DA687B681B6C1A447B68DA60C0
:100E40007B68DA687B689B689A4203D37B681A6880
:100E50007B68DA607B68D9687B681B6C1A463868E7
:100E600002F0CAFB00BF0837BD4680BD80B584B024
:100E700000AF786001F09AFD7B6893F84530FB7312
:100E800011E07B685B6A002B12D07B682433184624
:100E900000F03CFE0346002B01D000F011FFFB7B6D
:100EA000013BDBB2FB7397F90F30002BE9DC00E06C
:100EB00000BF7B68FF2283F8452001F0A7FD01F009
:100EC00075FD7B6893F84430BB7311E07B681B6948
:100ED000002B12D07B681033184600F017FE034633
:100EE000002B01D000F0ECFEBB7B013BDBB2BB73FF
:100EF00097F90E30002BE9DC00E000BF7B68FF2291
:100F000083F8442001F082FD00BF1037BD4680BD4C
:100F100080B584B000AF786001F048FD7B689B6BC2
:100F2000002B02D10123FB6001E00023FB6001F0F4
:100F30006DFDFB6818461037BD4680BD80B584B096
:100F400000AF786001F032FD7B689A6B7B68DB6BE9
:100F50009A4202D10123FB6001E00023FB6001F013
:100F600055FDFB6818461037BD4680BD80B485B07E
:100F700000AF786039600023FB6014E00F4AFB6823
:100F800052F83330002B0BD10C49FB683A6841F81A
:100F900033200A4AFB68DB0013447A685A6006E093
:100FA000FB680133FB60FB68072BE7D900BF00BF7C
:100FB0001437BD465DF8047B704700BFD03D00206C
:100FC00080B586B000AFF860B9607A60FB687B617D
:100FD00001F0ECFC7B6993F844305BB2B3F1FF3F66
:100FE00003D17B69002283F844207B6993F8453064
:100FF0005BB2B3F1FF3F03D17B69002283F8452048
:1010000001F004FD7B699B6B002B06D17B692433C7
:101010007A68B968184600F04DFD7869FFF726FF39
:1010200000BF1837BD4680BD80B58CB004AFF860F6
:10103000B9603B601346FB80FB889B00184601F0BB
:10104000B9FD78617B69002B0ED05C2001F0B2FD08
:10105000F861FB69002B03D0FB697A691A6305E02C
:10106000786901F06BFE01E00023FB61FB69002B56
:1010700013D0FA8800230393FB690293FB6A019360
:10108000BB6A00933B68B968F86800F00EF8F8692D
:1010900000F09AF80123BB6102E04FF0FF33BB611F
:1010A000BB6918462037BD4680BD80B588B000AF0B
:1010B000F860B9607A603B603B6B186B7B689B00A3
:1010C0001A46A52102F0A6FA3B6B1A6B7B6803F166
:1010D0008043013B9B001344BB61BB6923F00703C2
:1010E000BB61BB6903F00703002B0AD04FF050032C
:1010F00083F31188BFF36F8FBFF34F8F7B6100BF06
:10110000FEE7BB68002B1FD00023FB6112E0BA682A
:10111000FB69134419783A6BFB69134434330A466C
:101120001A70BA68FB6913441B78002B06D0FB6960
:101130000133FB61FB690F2BE9D900E000BF3B6B7A
:10114000002283F8432003E03B6B002283F8342025
:10115000BB6A072B01D90723BB623B6BBA6ADA6211
:101160003B6BBA6ADA643B6B00221A653B6B043353
:101170001846FFF719FA3B6B18331846FFF714FAB5
:101180003B6B3A6B1A61BB6AC3F108023B6B9A6115
:101190003B6B3A6B5A623B6B00225A653B6B0022F9
:1011A00083F858203A68F968B86901F00DFB0246E7
:1011B0003B6B1A60FB6A002B02D0FB6A3A6B1A6029
:1011C00000BF2037BD4680BD80B582B000AF7860DB
:1011D00001F0ECFB2C4B1B6801332B4A13602B4BAB
:1011E0001B68002B09D1294A7B681360264B1B68BA
:1011F000012B10D100F088FD0DE0254B1B68002B62
:1012000009D1224B1B68DA6A7B68DB6A9A4202D8F2
:101210001E4A7B6813601F4B1B6801331D4A136015
:101220001C4B1A687B685A647B68DB6A01229A400F
:10123000194B1B681343184A13607B68DA6A13461C
:101240009B0013449B00154A1A447B6804331946DB
:101250001046FFF7B6F901F0D9FB0D4B1B68002BC8
:101260000ED00A4B1B68DA6A7B68DB6A9A4207D2A7
:101270000B4B4FF080521A60BFF34F8FBFF36F8F4D
:1012800000BF0837BD4680BD400100202C00002073
:101290004C0100205C0100204801002030000020AB
:1012A00004ED00E080B584B000AF78600023FB60FF
:1012B0007B68002B17D0134B1B68002B0AD04FF014
:1012C000500383F31188BFF36F8FBFF34F8FBB6061
:1012D00000BFFEE700F0FCF90021786800F056FE40
:1012E00000F004FAF860FB68002B07D1064B4FF0C2
:1012F00080521A60BFF34F8FBFF36F8F00BF10375C
:10130000BD4680BD6801002004ED00E080B584B0DA
:1013100000AF786001F04AFB7B68002B02D13C4BA8
:101320001B6800E07B68FB60FB6804331846FFF72E
:10133000A5F90346002B15D1FB68DA6A3549134637
:101340009B0013449B000B441B68002B0AD1FB68D5
:10135000DB6A012202FA03F3DA432F4B1B681340C6
:101360002D4A1360FB689B6A002B04D0FB6818337E
:101370001846FFF783F9FB68043319462748FFF73F
:1013800020F9FB6893F85830DBB2012B03D1FB68DE
:10139000002283F8582001F039FB214B1B68002BF9
:1013A00005D001F003FB00F02DFD01F02FFB184BE1
:1013B0001B68FA689A4227D1194B1B68002B17D07B
:1013C000184B1B68002B0AD04FF0500383F3118891
:1013D000BFF36F8FBFF34F8FBB6000BFFEE7124BB1
:1013E0004FF080521A60BFF34F8FBFF36F8F0BE047
:1013F0000A4B1A680D4B1B689A4203D1044B00221A
:101400001A6001E000F0D6FA00BF1037BD4680BD7B
:101410002C00002030000020480100202C0100207A
:101420004C0100206801002004ED00E04001002094
:1014300080B487B000AF786000237B617B683B613C
:101440007B68002B0AD14FF0500383F31188BFF360
:101450006F8FBFF34F8FFB6000BFFEE73B695B6997
:101460000A4A93420AD13B699B6A094A934205D0D2
:101470003B699B6A002B01D101237B617B69184684
:101480001C37BD465DF8047B704700BF2C0100206F
:101490000001002080B584B000AF78607B68FB60FD
:1014A0007B68002B0AD14FF0500383F31188BFF300
:1014B0006F8FBFF34F8FBB6000BFFEE7204B1B68F1
:1014C000FA689A4237D0FB68002B34D001F06EFAEC
:1014D000F868FFF7ADFF0346002B2AD0FB68043302
:1014E0001846FFF7CBF8FB68DB6A01229A40154BE0
:1014F0001B681343134A1360FB68DA6A13469B00A8
:1015000013449B00104A1A44FB68043319461046E2
:10151000FFF757F8FB68DA6A094B1B68DB6A9A42E7
:1015200007D30A4B4FF080521A60BFF34F8FBFF3BF
:101530006F8F01F06BFA00BF1037BD4680BD00BF52
:101540002C000020480100203000002004ED00E0C5
:1015500080B58AB000AF786000237B627B683B6215
:101560007B68002B0AD14FF0500383F31188BFF33F
:101570006F8FBFF34F8FBB6100BFFEE701F0DAFA58
:10158000EFF311824FF0500383F31188BFF36F8F95
:10159000BFF34F8F7A613B617B69FB61386AFFF76C
:1015A00047FF0346002B2FD01D4B1B68002B25D176
:1015B0003B6ADA6A1B4B1B68DB6A9A4201D3012340
:1015C0007B623B6A04331846FFF758F83B6ADB6AD4
:1015D00001229A40144B1B681343134A13603B6A61
:1015E000DA6A13469B0013449B00104A1A443B6A74
:1015F000043319461046FEF7E4FF05E03B6A183352
:1016000019460B48FEF7DDFFFB69FB60FB6883F3BF
:10161000118800BF7B6A18462837BD4680BD00BFD1
:10162000680100202C00002048010020300000202C
:101630000001002080B586B002AF1F4B019300234C
:101640000093002380221D491D48FFF7EDFCF86040
:10165000FB68012B02D100F0FFFCF860FB68012B56
:1016600016D14FF0500383F31188BFF36F8FBFF390
:101670004F8FBB6000BF134B4FF0FF321A60124B0D
:1016800001221A60114B00221A6001F01DF90EE0D0
:10169000FB68B3F1FF3F0AD14FF0500383F3118889
:1016A000BFF36F8FBFF34F8F7B6000BFFEE700BFBC
:1016B0001037BD4680BD00BF640100205C360008C5
:1016C000D91C0008600100204C01002044010020CA
:1016D00080B400AF044B1B680133034A136000BFA2
:1016E000BD465DF8047B70476801002080B584B07A
:1016F00000AF0023FB600023BB60414B1B68002B45
:101700000AD14FF0500383F31188BFF36F8FBFF3FB
:101710004F8F3B6000BFFEE701F048F9384B1B6874
:10172000013B374A1360364B1B68002B61D1354BA8
:101730001B68002B5DD02EE0334BDB68DB68FB6061
:10174000FB6818331846FEF799FFFB680433184608
:10175000FEF794FFFB68DB6A01229A402B4B1B6863
:1017600013432A4A1360FB68DA6A13469B0013444A
:101770009B00274A1A44FB68043319461046FEF7BB
:1017800020FFFB68DA6A234B1B68DB6A9A4202D3AC
:10179000214B01221A601C4B1B68002BCCD1FB682B
:1017A000002B01D000F02EFB1C4B1B687B607B687C
:1017B000002B10D000F046F80346002B02D0164B49
:1017C00001221A607B68013B7B607B68002BF1D1B2
:1017D000124B00221A60104B1B68002B09D001230A
:1017E000BB600F4B4FF080521A60BFF34F8FBFF3B7
:1017F0006F8F01F00BF9BB6818461037BD4680BDEE
:101800006801002040010020000100204801002064
:10181000300000202C000020540100205001002046
:1018200004ED00E080B483B000AF054B1B687B6023
:101830007B6818460C37BD465DF8047B704700BFD7
:101840004401002080B586B000AF00237B614E4B81
:101850001B68002B40F088804C4B1B6801333B61B8
:101860004A4A3B6913603B69002B20D1484B1B68F7
:101870001B68002B0AD04FF0500383F31188BFF38D
:101880006F8FBFF34F8F3B6000BFFEE7404B1B687D
:10189000FB60404B1B683E4A13603E4AFB68136086
:1018A0003D4B1B6801333C4A136000F0ABFA3B4BE5
:1018B0001B683A699A4248D3354B1B681B68002B5A
:1018C00004D1364B4FF0FF321A603EE0304B1B68BC
:1018D000DB68DB68BB60BB685B687B603A697B6820
:1018E0009A4203D22D4A7B6813602EE0BB68043312
:1018F0001846FEF7C3FEBB689B6A002B04D0BB688A
:1019000018331846FEF7BAFEBB68DB6A01229A401C
:10191000234B1B681343224A1360BB68DA6A1346E1
:101920009B0013449B001F4A1A44BB6804331946AA
:101930001046FEF746FEBB68DA6A1B4B1B68DB6A83
:101940009A42B9D301237B61B6E7174B1B68DA6A69
:10195000144913469B0013449B000B441B68012B46
:1019600007D901237B6104E0104B1B6801330F4A48
:1019700013600F4B1B68002B01D001237B617B6937
:1019800018461837BD4680BD68010020440100207C
:10199000F8000020FC000020580100206001002019
:1019A00048010020300000202C00002050010020C1
:1019B0005401002080B487B000AF274B1B68002B78
:1019C00003D0264B01221A603FE0244B00221A600C
:1019D000234B1B68FB60FB68B3FA83F3FB72FB7A53
:1019E000C3F11F037B611F497A6913469B001344AF
:1019F0009B000B441B68002B0AD14FF0500383F36C
:101A00001188BFF36F8FBFF34F8F7B6000BFFEE77E
:101A10007A6913469B0013449B00124A13443B61AE
:101A20003B695B685A683B695A603B695A683B6925
:101A300008339A4204D13B695B685A683B695A6033
:101A40003B695B68DB68084A136000BF1C37BD4612
:101A50005DF8047B704700BF68010020540100203E
:101A600048010020300000202C00002080B584B008
:101A700000AF786039607B68002B0AD14FF05003CB
:101A800083F31188BFF36F8FBFF34F8FFB6000BFED
:101A9000FEE7074B1B68183319467868FEF7B5FD5B
:101AA0000121386800F072FA00BF1037BD4680BDD2
:101AB0002C00002080B586B000AFF860B9607A6075
:101AC000FB68002B0AD14FF0500383F31188BFF35A
:101AD0006F8FBFF34F8F7B6100BFFEE70A4B1B6820
:101AE00018331946F868FEF76CFD7B68002B02D0AE
:101AF0004FF0FF33BB607968B86800F047FA00BF69
:101B00001837BD4680BD00BF2C00002080B586B0D0
:101B100000AF78607B68DB68DB683B613B69002B6A
:101B20000AD14FF0500383F31188BFF36F8FBFF3D7
:101B30004F8FFB6000BFFEE73B6918331846FEF786
:101B40009DFD1D4B1B68002B1CD13B6904331846BF
:101B5000FEF794FD3B69DB6A01229A40174B1B6834
:101B60001343164A13603B69DA6A13469B00134419
:101B70009B00134A1A443B69043319461046FEF78A
:101B800020FD05E03B69183319460E48FEF719FDA4
:101B90003B69DA6A0C4B1B68DB6A9A4205D9012360
:101BA0007B610A4B01221A6001E000237B617B69A3
:101BB00018461837BD4680BD680100204801002046
:101BC00030000020000100202C00002054010020E3
:101BD00080B483B000AF7860064B1A687B681A60E7
:101BE000054B1A687B685A6000BF0C37BD465DF82C
:101BF000047B7047580100204401002080B588B064
:101C000000AF786039607B68002B0AD14FF0500339
:101C100083F31188BFF36F8FBFF34F8F3B6100BF1A
:101C2000FEE73B68002B0AD14FF0500383F3118885
:101C3000BFF36F8FBFF34F8FFB6000BFFEE700F075
:101C4000B5FE1D4B1B68BB617B685B68BA69D31A24
:101C50007B613B681B68B3F1FF3F02D10023FB614E
:101C600023E07B681A68154B1B689A4207D07B6893
:101C70005B68BA699A4202D30123FB6115E03B68B5
:101C80001B687A699A420BD23B681A687B69D21A40
:101C90003B681A607868FFF79BFF0023FB6104E054
:101CA0003B6800221A600123FB6100F0AFFEFB6974
:101CB00018462037BD4680BD440100205801002051
:101CC00080B400AF034B01221A6000BFBD465DF82F
:101CD000047B70475401002080B582B000AF78606B
:101CE00000F052F8064B1B68012BF9D9054B4FF059
:101CF00080521A60BFF34F8FBFF36F8FF0E700BFC2
:101D00003000002004ED00E080B582B000AF002379
:101D10007B600CE07A6813469B0013449B00124AD8
:101D200013441846FEF720FC7B6801337B607B6818
:101D3000072BEFD90D48FEF717FC0D48FEF714FCF2
:101D40000C48FEF711FC0C48FEF70EFC0B48FEF7A2
:101D50000BFC0B4B054A1A600A4B054A1A6000BF80
:101D60000837BD4680BD00BF30000020D0000020F5
:101D7000E400002000010020140100202C010020BC
:101D8000F8000020FC00002080B582B000AF19E010
:101D900000F00CFE104BDB68DB687B607B68043373
:101DA0001846FEF76BFC0D4B1B68013B0B4A13609A
:101DB0000B4B1B68013B0A4A136000F027FE786852
:101DC00000F010F8064B1B68002BE1D100BF00BFEC
:101DD0000837BD4680BD00BF14010020400100202F
:101DE0002801002080B582B000AF78607B681B6B53
:101DF000184600F0A3FF786800F0A0FF00BF083786
:101E0000BD4680BD80B483B000AF0C4B1B681B681F
:101E1000002B04D10A4B4FF0FF321A6008E0074B49
:101E20001B68DB68DB687B607B685B68044A136067
:101E300000BF0C37BD465DF8047B7047F8000020FA
:101E40006001002080B483B000AF0B4B1B68002BF7
:101E500002D101237B6008E0084B1B68002B02D1F4
:101E600002237B6001E000237B607B6818460C370F
:101E7000BD465DF8047B70474C01002068010020DE
:101E800080B586B000AF78607B683B6100237B61E2
:101E90007B68002B6ED03A4B1B683A699A420AD095
:101EA0004FF0500383F31188BFF36F8FBFF34F8F51
:101EB000FB6000BFFEE73B691B6D002B0AD14FF0B2
:101EC000500383F31188BFF36F8FBFF34F8FBB6055
:101ED00000BFFEE73B691B6D5A1E3B691A653B69F3
:101EE000DA6A3B69DB6C9A4244D03B691B6D002B7C
:101EF00040D13B6904331846FEF7C0FB0346002B74
:101F000015D13B69DA6A1F4913469B0013449B00B5
:101F10000B441B68002B0AD13B69DB6A012202FAE1
:101F200003F3DA43184B1B681340174A13603B69ED
:101F3000DA6C3B69DA623B69DB6AC3F108023B6930
:101F40009A613B69DB6A01229A400F4B1B6813437D
:101F50000D4A13603B69DA6A13469B0013449B00E9
:101F6000084A1A443B69043319461046FEF729FB18
:101F700001237B617B6918461837BD4680BD00BFD1
:101F80002C000020300000204801002080B584B0E3
:101F900000AF78603960294B1B68FB60284B1B68D9
:101FA00004331846FEF76AFB0346002B0BD1244B83
:101FB0001B68DB6A012202FA03F3DA43214B1B6838
:101FC0001340204A13607B68B3F1FF3F0AD13B689E
:101FD000002B07D01A4B1B68043319461A48FEF72A
:101FE000F0FA26E0FA687B681344BB60144B1B6868
:101FF000BA685A60BA68FB689A4209D2134B1A68E9
:102000000F4B1B68043319461046FEF7FEFA10E02A
:102010000F4B1A680A4B1B68043319461046FEF72B
:10202000F4FA0C4B1B68BA689A4202D2094ABB68A0
:10203000136000BF1037BD4680BD00BF44010020C3
:102040002C000020480100202C010020FC00002072
:10205000F80000206001002080B584B002AF0023AA
:102060007B6000F0D5FA114B1B68002B0BD0104B96
:1020700001930223009300234FF480720D490E4810
:10208000FEF7D2FF78607B68002B0AD14FF0500337
:1020900083F31188BFF36F8FBFF34F8F3B6000BF97
:1020A000FEE77B6818460837BD4680BD9C010020CE
:1020B000A001002064360008F121000880B58AB034
:1020C00000AFF860B9607A603B6000237B62FB6818
:1020D000002B0AD14FF0500383F31188BFF36F8FA9
:1020E000BFF34F8F3B6200BFFEE71A4B1B68002B0C
:1020F0002AD0BB687B617B68BB61FB68FB61BB6806
:10210000052B18DCFFF79EFE0346022B09D1114B6D
:10211000186807F1140100233A6BFEF7A1FB7862FF
:1021200012E00C4B186807F1140100230022FEF79F
:1021300097FB786208E0074B186807F11401002349
:102140003A68FEF78BFC78627B6A18462837BD46F2
:1021500080BD00BF9C01002080B588B002AF7860D0
:102160003960224B1B68DB68DB687B617B69043369
:102170001846FEF783FA7B6993F8283003F00403CE
:10218000002B22D07B699A697B68D1187B683A68FA
:10219000786900F0D1F80346002B1FD0002300938C
:1021A00000237A6800217869FFF788FF38613B696E
:1021B000002B13D14FF0500383F31188BFF36F8FBF
:1021C000BFF34F8FFB6000BFFEE77B6993F82830B9
:1021D00023F00103DAB27B6983F828207B691B6A4C
:1021E0007869984700BF1837BD4680BD940100202C
:1021F00080B584B000AF786007F10803184600F09E
:1022000057F8F860BB681946F86800F003F800F06A
:10221000D5F8F1E780B584B000AF78603960FFF79A
:1022200057FA07F10803184600F066F8F860BB6833
:10223000002B30D13B68002B0AD17A68FB689A42A8
:1022400006D8FFF753FAF9687868FFF785FF24E0AE
:102250003B68002B08D0134B1B681B68002B01D177
:10226000012300E000233B600F4B18687A68FB688D
:10227000D31A3A681946FEF7A3FEFFF737FA03466A
:10228000002B0AD1094B4FF080521A60BFF34F8FD9
:10229000BFF36F8F01E0FFF729FA00BF1037BD468B
:1022A00080BD00BF980100209C01002004ED00E0EB
:1022B00080B485B000AF78600E4B1B681B68002BA4
:1022C00001D1012200E000227B681A607B681B6854
:1022D000002B05D1074B1B68DB681B68FB6001E026
:1022E0000023FB60FB6818461437BD465DF8047B8D
:1022F000704700BF9401002080B584B000AF7860C3
:10230000FFF790FAF8600B4B1B68FA689A4205D207
:1023100000F01AF97B6801221A6002E07B68002253
:102320001A60044AFB681360FB6818461037BD4604
:1023300080BD00BFA401002080B586B000AFF8606A
:10234000B9607A603B6000237B61FB68BA685A60C1
:10235000FB68FA681A61BA687B689A4212D87A6890
:102360003B68D21AFB689B699A4202D301237B61C6
:102370001BE0104B1A68FB68043319461046FEF741
:1023800044F912E07A683B689A4206D2BA683B6820
:102390009A4202D301237B6107E0074B1A68FB686E
:1023A000043319461046FEF730F97B691846183792
:1023B000BD4680BD980100209401002080B58CB0FE
:1023C00002AFAEE0BB68002BC0F2AA803B697B6223
:1023D0007B6A5B69002B04D07B6A04331846FEF7E6
:1023E0004DF93B1D1846FFF787FF3862BB68092B84
:1023F00000F2978001A252F823F000BF25240008C4
:10240000252400082524000899240008AD2400088C
:10241000F724000825240008252400089924000832
:10242000AD2400087B6A93F8283043F00103DAB248
:102430007B6A83F82820FA687B6A9B69D118FB685D
:102440003A6A786AFFF778FF0346002B69D07B6A07
:102450001B6A786A98477B6A93F8283003F0040374
:10246000002B5ED0FA687B6A9B691A4400230093B4
:1024700000230021786AFFF721FEF861FB69002B39
:102480004FD14FF0500383F31188BFF36F8FBFF329
:102490004F8FBB6100BFFEE77B6A93F8283023F0C3
:1024A0000103DAB27B6A83F828203AE07B6A93F86A
:1024B000283043F00103DAB27B6A83F82820FA68F7
:1024C0007B6A9A617B6A9B69002B0AD14FF05003AB
:1024D00083F31188BFF36F8FBFF34F8F7B6100BF12
:1024E000FEE77B6A9A693B6AD1183B6A3A6A786A66
:1024F000FFF722FF15E07B6A93F8283003F0020310
:10250000002B03D1786A00F019FC0AE07B6A93F88B
:10251000283023F00103DAB27B6A83F8282000E038
:1025200000BF084B1B6807F1080100221846FEF7A0
:102530002DFB0346002B7FF445AF00BF00BF2837BB
:10254000BD4680BD9C01002080B588B002AF48E048
:102550002D4B1B68DB681B683B612B4B1B68DB68E2
:10256000DB68FB60FB6804331846FEF787F8FB68FE
:102570001B6AF8689847FB6893F8283003F0040357
:10258000002B2ED0FB689B693A691344BB60BA6884
:102590003B699A420ED9FB68BA685A60FB68FA68D0
:1025A0001A61194B1A68FB68043319461046FEF786
:1025B0002CF816E00023009300233A690021F86804
:1025C000FFF77CFD78607B68002B0AD14FF0500349
:1025D00083F31188BFF36F8FBFF34F8F3B6000BF52
:1025E000FEE7094B1B681B68002BB1D1064B1B682B
:1025F0007B61064B1B68044A1360044A7B691360C5
:1026000000BF1837BD4680BD94010020980100200E
:1026100080B500AF00F0CAF9124B1B68002B1DD12A
:102620001148FDF7A1FF1148FDF79EFF104B0E4A20
:102630001A60104B0D4A1A6000220C210A20FEF786
:10264000AFF80346074A1360064B1B68002B05D002
:10265000044B1B6808491846FEF788FC00F0D6F9C1
:1026600000BF80BD9C0100206C0100208001002083
:1026700094010020980100206C36000880B485B0D9
:1026800000AF0346FB800023FB60B7F90630842BC4
:1026900005D0B7F90620FB6813440333FB60FB68E1
:1026A00018461437BD465DF8047B704780B483B08C
:1026B00000AFEFF305837B607B68002B14BF012321
:1026C0000023DBB218460C37BD465DF8047B70472B
:1026D00080B500AFFEF7AEFF0023184680BDF0B511
:1026E00087B002AF786039607B685C687B681D6882
:1026F0007B681B699EB27B68B3F908301846FFF708
:10270000BDFF024607F10C03019300923B6832467D
:1027100029462046FEF788FC0346012B01D0002302
:1027200000E0FB6818461437BD46F0BD80B584B0A4
:1027300000AF78607B68FB60FB68002B01D0FB6812
:1027400000E001231846FEF7ADFD002318461037C0
:10275000BD4680BD80B500AFFFF774FB0346012B7B
:1027600001D000F0A1F900BF80BD80B582B000AFFC
:1027700078607868FEF7CAFD002318460837BD4622
:1027800080BD000080B582B000AF7860FFF78EFF9B
:102790000346002B0ED07868FEF7DAFE0346012BC5
:1027A0000BD1084B4FF080521A60BFF34F8FBFF32D
:1027B0006F8F02E07868FEF76DFE00231846083739
:1027C000BD4680BD04ED00E080B485B000AFF86088
:1027D000B9607A60FB68043BFB60FB684FF0807275
:1027E0001A60FB68043BFB60BB6823F00102FB68D6
:1027F0001A60FB68043BFB60094AFB681A60FB68CF
:10280000143BFB607A68FB681A60FB68203BFB6046
:10281000FB6818461437BD465DF8047B704700BF5F
:102820002528000880B485B000AF00237B60124BE0
:102830001B68B3F1FF3F0AD04FF0500383F31188B8
:10284000BFF36F8FBFF34F8FFB6000BFFEE74FF00A
:10285000500383F31188BFF36F8FBFF34F8FBB60BB
:1028600000BF00BF7B68002BFCD000BF00BF143747
:10287000BD465DF8047B70470400002000000000A6
:10288000074B19680868B0E8F00F80F30988BFF3B8
:102890006F8F4FF0000080F311884EF00D0E7047DF
:1028A0002C00002000BF00BF06480068006880F3CD
:1028B000088862B661B6BFF34F8FBFF36F8F00DF3A
:1028C00000BF00BF08ED00E080B584B000AF324B20
:1028D000FB60FB681B78DBB27B60FB68FF221A7031
:1028E000FB681B78DBB2FB70FB78DBB203F05003B4
:1028F000DAB22A4B1A702A4B07221A6009E0284BD9
:102900001B68013B264A1360FB78DBB25B00DBB23D
:10291000FB70FB78DBB203F08003802BEFD0204B01
:102920001B68C3F10703042B0AD04FF0500383F355
:102930001188BFF36F8FBFF34F8FBB6000BFFEE7FF
:10294000174B1B681B02164A1360154B1B6803F4D8
:10295000E063134A13607B68DAB2FB681A70114BAC
:102960001B68104A43F4700313600E4B1B680D4A3A
:1029700043F07043136000F0B9F80B4B00221A606B
:10298000FFF792FFFFF716F8FFF74CFF00231846FA
:102990001037BD4680BD00BF00E400E0A801002064
:1029A000AC01002020ED00E00400002080B483B0E2
:1029B00000AF4FF0500383F31188BFF36F8FBFF365
:1029C0004F8F7B6000BF0F4B1B6801330D4A1360B4
:1029D0000C4B1B68012B0FD10B4B1B68DBB2002B80
:1029E0000AD04FF0500383F31188BFF36F8FBFF30A
:1029F0004F8F3B6000BFFEE700BF0C37BD465DF860
:102A0000047B70470400002004ED00E080B483B034
:102A100000AF124B1B68002B0AD14FF0500383F319
:102A20001188BFF36F8FBFF34F8F7B6000BFFEE74E
:102A30000A4B1B68013B094A1360084B1B68002BBB
:102A400005D100233B603B6883F3118800BF00BFC2
:102A50000C37BD465DF8047B704700BF04000020C2
:102A6000EFF30980BFF36F8F0D4B1A6820E9F00F69
:102A700010602DE908404FF0500080F31188FEF7F8
:102A800099FF4FF0000080F31188BDE808401968F5
:102A90000868B0E8F00F80F30988BFF36F8F7047C4
:102AA0002C00002000BF00BF80B582B000AF4FF007
:102AB000500383F31188BFF36F8FBFF34F8F7B6099
:102AC00000BFFEF7BFFE0346002B03D0064B4FF0BE
:102AD00080521A6000233B603B6883F3118800BF7B
:102AE00000BF0837BD4680BD04ED00E080B400AFF4
:102AF0000B4B00221A600B4B00221A600A4B1B681A
:102B00000A4AA2FB03239B09094A013B1360044BB9
:102B100007221A6000BFBD465DF8047B704700BF06
:102B200010E000E018E000E000000020D34D62104B
:102B300014E000E080B485B000AFEFF30583FB60E4
:102B4000FB680F2B14D9174AFB6813441B78FB72E0
:102B5000154B1B78FA7A9A420AD24FF0500383F34E
:102B60001188BFF36F8FBFF34F8F7B6000BFFEE70D
:102B70000E4B1B6803F4E0620D4B1B689A420AD9A6
:102B80004FF0500383F31188BFF36F8FBFF34F8F64
:102B90003B6000BFFEE700BF1437BD465DF8047B15
:102BA000704700BFF0E300E0A80100200CED00E05A
:102BB000AC01002080B58AB000AF78600023FB61D3
:102BC000FEF786FD584B1B68002B01D100F010F971
:102BD000564B1A687B681340002B40F08E807B6850
:102BE000002B1DD008227B6813447B607B6803F0B8
:102BF0000703002B14D07B6823F0070308337B60A6
:102C00007B6803F00703002B0AD04FF0500383F3D7
:102C10001188BFF36F8FBFF34F8F7B6100BFFEE75B
:102C20007B68002B69D0424B1B687A689A4264D853
:102C3000404B3B623F4B1B687B6204E07B6A3B621C
:102C40007B6A1B687B627B6A5B687A689A4203D9FD
:102C50007B6A1B68002BF1D1334B1B687A6A9A425E
:102C60004BD03B6A1B6808221344FB617B6A1A68DD
:102C70003B6A1A607B6A5A687B68D21A08235B0039
:102C80009A421FD97A6A7B681344BB61BB6903F01F
:102C90000703002B0AD04FF0500383F31188BFF3D2
:102CA0006F8FBFF34F8F3B6100BFFEE77B6A5A68AF
:102CB0007B68D21ABB695A607B6A7A685A60B869C5
:102CC00000F0F8F81A4B1A687B6A5B68D31A184A46
:102CD0001360174B1A68184B1B689A4203D2144BA7
:102CE0001B68154A13607B6A5A68104B1B681A43AD
:102CF0007B6A5A607B6A00221A60FEF7F7FCFB6968
:102D000003F00703002B0AD04FF0500383F3118820
:102D1000BFF36F8FBFF34F8FFB6000BFFEE7FB6910
:102D200018462837BD4680BDB83D0020C43D002070
:102D3000BC3D0020B03D0020C03D002080B586B0E5
:102D400000AF78607B687B617B68002B48D00823EC
:102D50005B427A6913447B617B693B613B695A68DA
:102D6000214B1B681340002B0AD14FF0500383F313
:102D70001188BFF36F8FBFF34F8FFB6000BFFEE77B
:102D80003B691B68002B0AD04FF0500383F3118876
:102D9000BFF36F8FBFF34F8FBB6000BFFEE73B6990
:102DA0005A68114B1B681340002B19D03B691B68F4
:102DB000002B15D13B695A680B4B1B68DB431A404B
:102DC0003B695A60FEF784FC3B695A68074B1B68F5
:102DD0001344064A1360386900F06CF8FEF786FC6D
:102DE00000BF1837BD4680BDC43D0020BC3D00205B
:102DF00080B485B000AF4FF47053BB60274BFB60CD
:102E0000FB6803F00703002B0CD0FB680733FB6063
:102E1000FB6823F00703FB60BA68FB68D31A1F4AFC
:102E20001344BB60FB687B601D4A7B6813601C4BCE
:102E300000225A607B68BA681344FB600822FB6872
:102E40009B1AFB60FB6823F00703FB60FB68154AD5
:102E50001360144B1B6800225A60124B1B6800223F
:102E60001A607B683B603B68FA68D21A3B685A601C
:102E70000C4B1A683B681A603B685B680A4A13602F
:102E80003B685B68094A1360094B4FF000421A60C7
:102E900000BF1437BD465DF8047B7047B0010020C9
:102EA000B03D0020B83D0020C03D0020BC3D0020CA
:102EB000C43D002080B485B000AF7860284BFB6033
:102EC00002E0FB681B68FB60FB681B687A689A423B
:102ED000F7D8FB68BB60FB685B68BA6813447A6824
:102EE0009A4208D1FB685A687B685B681A44FB68A1
:102EF0005A60FB687B607B68BB607B685B68BA6814
:102F00001A44FB681B689A4218D1FB681A68154B73
:102F10001B689A420DD07B685A68FB681B685B6827
:102F20001A447B685A60FB681B681A687B681A60E1
:102F300008E00C4B1A687B681A6003E0FB681A68AB
:102F40007B681A60FA687B689A4202D0FB687A68EC
:102F50001A6000BF1437BD465DF8047B704700BFA0
:102F6000B03D0020B83D002080B500AF0E4B1B687F
:102F70000D4A43F4007313600B4B1B680A4A43F479
:102F800080631360084B1B68074A43F48073136027
:102F9000032000F009F90F2000F010F800F006F807
:102FA0000023184680BD00BF003C024080B400AF43
:102FB00000BFBD465DF8047B7047000080B582B05D
:102FC00000AF7860124B1A68124B1B7819464FF409
:102FD0007A73B3FBF1F3B2FBF3F3184600F00BF98D
:102FE0000346002B01D001230EE07B680F2B0AD88B
:102FF000002279684FF0FF3000F0E1F8064A7B6864
:103000001360002300E0012318460837BD4680BD49
:10301000000000200C0000200800002080B400AF59
:10302000064B1B781A46064B1B681344044A136070
:1030300000BFBD465DF8047B704700BF0C00002058
:10304000103E002080B485B000AF78607B6803F04C
:103050000703FB600C4BDB68BB60BA684FF6FF03ED
:103060001340BB60FB681A02BB68134343F0BF63A5
:1030700043F40033BB60044ABB68D36000BF14371D
:10308000BD465DF8047B704700ED00E080B400AF02
:10309000044BDB681B0A03F007031846BD465DF8C6
:1030A000047B704700ED00E080B483B000AF0346BE
:1030B0003960FB7197F90730002B0ADB3B68DAB205
:1030C0000C4997F907301201D2B20B4483F8002360
:1030D0000AE03B68DAB20849FB7903F00F03043BCE
:1030E0001201D2B20B441A7600BF0C37BD465DF810
:1030F000047B704700E100E000ED00E080B489B09F
:1031000000AFF860B9607A60FB6803F00703FB6109
:10311000FB69C3F10703042B28BF0423BB61FB69D0
:103120000433062B02D9FB69033B00E000237B61DB
:103130004FF0FF32BB6902FA03F3DA43BB681A406F
:103140007B699A404FF0FF317B6901FA03F3D94361
:103150007B680B40134318462437BD465DF8047B5B
:103160007047000080B582B000AF78607B68013B9B
:10317000B3F1807F01D301230FE00A4A7B68013B52
:1031800053600F214FF0FF30FFF78EFF054B0022F9
:103190009A60044B07221A60002318460837BD4680
:1031A00080BD00BF10E000E080B582B000AF786065
:1031B0007868FFF747FF00BF0837BD4680BD80B580
:1031C00086B000AF0346B9607A60FB7300237B6171
:1031D000FFF75CFF78617A68B9687869FFF78EFF5E
:1031E000024697F90F3011461846FFF75DFF00BF02
:1031F0001837BD4680BD80B582B000AF7860786872
:10320000FFF7B0FF034618460837BD4680BD0000F3
:1032100080B489B000AF7860396000237B610023FF
:103220003B610023BB610023FB616BE10122FB6971
:1032300002FA03F37B613B681B687A6913403B61C8
:103240003A697B699A4240F05A813B685B68012B7E
:103250000BD03B685B68022B07D03B685B68112B87
:1032600003D03B685B68122B30D17B689B68BB61E5
:10327000FB695B00032202FA03F3DB43BA691340E4
:10328000BB613B68DA68FB695B0002FA03F3BA6969
:103290001343BB617B68BA699A607B685B68BB61FA
:1032A0000122FB6902FA03F3DB43BA691340BB61F5
:1032B0003B685B681B0903F00102FB6902FA03F338
:1032C000BA691343BB617B68BA695A607B68DB6883
:1032D000BB61FB695B00032202FA03F3DB43BA69BB
:1032E0001340BB613B689A68FB695B0002FA03F319
:1032F000BA691343BB617B68BA69DA603B685B6893
:10330000022B03D03B685B68122B23D1FB69DA08E0
:103310007B68083253F82230BB61FB6903F0070376
:103320009B000F2202FA03F3DB43BA691340BB612F
:103330003B681A69FB6903F007039B0002FA03F379
:10334000BA691343BB61FB69DA087B680832B96963
:1033500043F822107B681B68BB61FB695B0003229A
:1033600002FA03F3DB43BA691340BB613B685B6855
:1033700003F00302FB695B0002FA03F3BA6913432B
:10338000BB617B68BA691A603B685B6803F0805375
:10339000002B00F0B4800023FB60604B5B6C5F4A45
:1033A00043F4804353645D4B5B6C03F48043FB60E8
:1033B000FB685B4AFB699B08023352F82330BB6110
:1033C000FB6903F003039B000F2202FA03F3DB43C4
:1033D000BA691340BB617B68524A93422BD07B6829
:1033E000514A934225D07B68504A93421FD07B6854
:1033F0004F4A934219D07B684E4A934213D07B6860
:103400004D4A93420DD07B684C4A934207D07B686B
:103410004B4A934201D107230EE008230CE0062318
:103420000AE0052308E0042306E0032304E0022366
:1034300002E0012300E00023FA6902F00302920097
:103440009340BA691343BB613549FB699B0802335A
:10345000BA6941F823203B4B1B68BB613B69DB43E6
:10346000BA691340BB613B685B6803F48033002B8F
:1034700003D0BA693B691343BB61324ABB6913602D
:10348000304B5B68BB613B69DB43BA691340BB618E
:103490003B685B6803F40033002B03D0BA693B69D7
:1034A0001343BB61274ABB695360264B9B68BB61D2
:1034B0003B69DB43BA691340BB613B685B6803F45B
:1034C0008013002B03D0BA693B691343BB611D4ACB
:1034D000BB6993601B4BDB68BB613B69DB43BA692B
:1034E0001340BB613B685B6803F40013002B03D0FF
:1034F000BA693B691343BB61124ABB69D360FB697C
:103500000133FB61FB690F2B7FF690AE00BF00BF5C
:103510002437BD465DF8047B704700BF0038024089
:103520000038014000000240000402400008024050
:10353000000C02400010024000140240001802403B
:10354000001C0240003C014080B483B000AF7860B2
:103550000B467B8013467B707B78002B03D07A88E8
:103560007B689A6103E07B881A047B689A6100BFDC
:103570000C37BD465DF8047B704780B483B000AF64
:1035800078600B467B807B685A697B881A407B8811
:103590009A4204D17B881A047B689A6102E07A8897
:1035A0007B689A6100BF0C37BD465DF8047B7047AD
:1035B00070B50D4D0D4C641BA4100026A64209D118
:1035C0000B4D0C4C00F056F8641BA4100026A642CC
:1035D00005D170BD55F8043B98470136EEE755F824
:1035E000043B98470136F2E78C3600088C36000819
:1035F0008C360008903600080A44914200F1FF33EF
:1036000000D1704710B511F8014B03F8014F9142FA
:10361000F9D110BD02440346934200D1704703F82C
:10362000011BF9E74C454431000000004C45443291
:10363000000000002436000881020008000000009D
:1036400000000000800000002C360008CD020008B9
:1036500000000000000000008000000049444C45CC
:1036600000000000546D722053766300546D725157
:1036700000000000F8B500BFF8BC08BC9E467047CB
:0C368000F8B500BFF8BC08BC9E467047BF
:04368C00B50100087C
:04369000910100089C
:103694000024F400AAAAAAAA100000000100000055
:0400000508000521C9
:00000001FF
